S01400004750494F5F464E445F6578312E737265633D
S113000045C000004BC0000049C0000047C00000CC
S113001045C0000043C0000041C000003FC00000D4
S11300203DC000003BC0000039C0000037C00000E4
S113003035C0000033C0000031C000002FC00000F4
S11300402DC000002BC0000029C0000027C0000004
S113005025C0000023C0000021C000001FC0000014
S11300601DC000001BC0000019C0000017C0000024
S113007015C0000013C0000011C000000FC0000034
S11300800DC000000BC0000009C0000011241FBEF9
S1130090CFEFD0E1DEBFCDBF34D034C0B1CF9FEFBE
S11300A09ABB8BBB089511BA82BB80B3FB018083DA
S11300B00895CF93DF931F92CDB7DEB7BE016F5F74
S11300C07F4F8AEAF0DF8981EADF2AEA36EE86E9A1
S11300D091E02150304080409040D9F70000BE01AB
S11300E06F5F7F4F85E5DFDF8981D9DF2AEA36EE4E
S11300F086E991E02150304080409040D9F70000DB
S10B0100DDCFD7DFF894FFCF37
S9030000FC
