S00F0000535344313330362E7372656361
S113000045C0000058C0000056C0000054C00000A5
S113001052C0000050C000004EC000004CC00000A0
S11300204AC0000048C0000046C0000044C00000B0
S113003042C0000040C000003EC000003CC00000C0
S11300403AC0000038C0000036C0000034C00000D0
S113005032C0000030C000002EC000002CC00000E0
S11300602AC0000028C0000026C0000024C00000F0
S113007022C0000020C000001EC000001CC0000000
S11300801AC0000018C0000016C0000011241FBED2
S1130090CFEFD0E1DEBFCDBF15E0A0E0B1E0EAEBE9
S11300A0F2E000E00BBF02C007900D92AE30B10742
S11300B0D9F7FDD000C1A4CF8CE0809370001092DA
S11300C071000895809174008823E4F78091710091
S11300D0887F08958093730084E880937400F2CF3E
S11300E00895EF92FF920F931F93CF93DF93D82F2E
S11300F07B018A01C22F84EA80937400E3DF883194
S113010051F0803241F08830F1F4D093730084E8E8
S113011080937400F3CFC11102C080E0DBDFC130F3
S113012011F480E4D7DFC0E0D0E006C0F701EC0FA3
S1130130FD1F8081CFDF2196C017D107B8F384E972
S11301408093740080E0DF91CF911F910F91FF9015
S1130150EF900895CF93DF931F92CDB7DEB78983D5
S113016020E041E050E0BE016F5F7F4F88E7B9DFD8
S11301700F90DF91CF91089588EAECDF8FE3EADFF7
S113018083EDE8DF80E0E6DF80E4E4DF81EAE2DFBC
S113019088ECE0DF8AEDDEDF82E1DCDF81E8DADFB4
S11301A08FEFD8DF84EAD6DF86EAD4DF85EDD2DFAD
S11301B080E8D0DF8DE8CEDF84E1CCDF8EE2CADFD9
S11301C08FEAC8CF0895CF93DF93D82FC62F80E24C
S11301D0C1DF82E0BFDF8D2F806BBCDF8C2F8F707F
S11301E0B9DF8C2F82958F708061B4DFDF91CF915E
S11301F00895CF93962FC42F682F660F660F660F4E
S1130200892FE1DF6C2F70E0660F771F660F771F71
S1130210660F771F60507F4F21E048E050E088E789
S113022060DFCF910895FF920F931F93CF93DF93D5
S1130230D82FF62E8A01C0E0F801EC0FF11D4081A1
S11302406F2D8C2F8D0FD5DFCF5FF801EC0FF11DD3
S11302508081882331F08C2F90E08D0F911D409781
S11302605CF3DF91CF911F910F91FF900895CF938D
S1130270C0E008C06C2F62956F704C2F8C2F8F706C
S1130280B8DFCF5FCC23B4F7CF91089511BA83E0E0
S113029082BB80B58B7F80BD0FCF0895F7DF6CDF05
S11302A0E6DF40E055E060E080E0BDCF0895F6DF92
S10D02B080E090E00895F894FFCF79
S11302BA0000000000000000000000000000000030
S11302CA0000000000000000000000000000000020
S11302DA0000000000000000000000000000000010
S11302EA0000000000000000000000000000000000
S11302FA00000000000000000000000000000000F0
S113030A00000000000000000000000000000000DF
S113031A00000000000000000000000000000000CF
S113032A00000000000000000000000000000000BF
S113033A00000000000000000000000000000000AF
S113034A000000000000000000000000000000009F
S113035A000000000000000000000000000000008F
S113036A000000000000000000000000000000007F
S113037A000000000000000000000000000000006F
S113038A000000000000000000000000000000005F
S113039A000000000000000000000000000000004F
S11303AA000000000000000000000000000000003F
S11303BA00000000000000000000065F5F06000065
S11303CA0003030003030000147F7F147F7F1400DB
S11303DA242E6B6B3A120000466630180C666200D3
S11303EA307A4F5D377A48000407030000000000A2
S11303FA001C3E63410000000041633E1C000000F3
S113040A082A3E1C1C3E2A0808083E3E080800002A
S113041A0080E060000000000808080808080000DE
S113042A00006060000000006030180C0603010040
S113043A3E7F71594D7F3E0040427F7F404000001D
S113044A627359496F660000226349497F36000086
S113045A181C16537F7F5000276745457D390000D5
S113046A3C7E4B4979300000030371790F07000081
S113047A367F49497F360000064F49693F1E00000E
S113048A00006666000000000080E66600000000C6
S113049A081C366341000000242424242424000078
S11304AA004163361C080000020351590F0600007C
S11304BA3E7F415D5D1F1E007C7E13137E7C00001F
S11304CA417F7F49497F36001C3E634141632200D4
S11304DA417F7F41633E1C00417F7F495D41630048
S11304EA417F7F491D0103001C3E63415173720021
S11304FA7F7F08087F7F000000417F7F4100000062
S113050A307040417F3F0100417F7F081C776300C0
S113051A417F7F41406070007F7F0E1C0E7F7F0009
S113052A7F7F060C187F7F001C3E6341633E1C00DC
S113053A417F7F49090F06001E3F21717F5E00003B
S113054A417F7F09197F6600266F4D597332000077
S113055A03417F7F410300007F7F40407F7F00008B
S113056A1F3F60603F1F00007F7F3018307F7F008D
S113057A43673C183C674300074F78784F070000ED
S113058A476371594D677300007F7F414100000042
S113059A0103060C183060000041417F7F0000000F
S11305AA080C0603060C0800808080808080808006
S11305BA0000030704000000207454543C784000EF
S11305CA417F3F4848783000387C44446C28000016
S11305DA307848493F7F4000387C54545C18000006
S11305EA487E7F490302000098BCA4A4F87C040056
S11305FA417F7F08047C780000447D7D4000000030
S113060A60E08080FD7D0000417F7F10386C4400EB
S113061A00417F7F400000007C7C18381C7C7800F5
S113062A7C7C04047C780000387C44447C380000D8
S113063A84FCF8A4243C1800183C24A4F8FC840084
S113064A447C784C041C1800485C545474240000FC
S113065A00043E7F442400003C7C40403C7C400033
S113066A1C3C60603C1C00003C7C7038707C3C0084
S113067A446C3810386C44009CBCA0A0FC7C00007C
S113068A4C64745C4C64000008083E7741410000E5
S113069A00000077770000004141773E0808000017
S11306AA020301030203010000000000000000002D
S11106BA48656C6C6F2C20576F726C642100C5
S9030000FC
