:1000000045C000004BC0000049C0000047C00000D0
:1000100045C0000043C0000041C000003FC00000D8
:100020003DC000003BC0000039C0000037C00000E8
:1000300035C0000033C0000031C000002FC00000F8
:100040002DC000002BC0000029C0000027C0000008
:1000500025C0000023C0000021C000001FC0000018
:100060001DC000001BC0000019C0000017C0000028
:1000700015C0000013C0000011C000000FC0000038
:100080000DC000000BC0000009C0000011241FBEFD
:10009000CFEFD0E1DEBFCDBF2CD02EC0B1CF9FEFD0
:1000A0009ABB8BBB0895CF93C0E08C2FF8DF2FEF66
:1000B00080E792E0215080409040E1F700C00000CE
:1000C000CF3F11F0CF5FF1CFCF910895CF93C1E033
:1000D0000CC08C2FE4DF2FEF89E698E1215080409F
:1000E0009040E1F700C00000CC0FC111F2CFCF91DA
:0C00F0000895D9DFEBDFFDCFF894FFCFBF
:00000001FF
