:1000000045C0000058C0000056C0000054C00000A9
:1000100052C0000050C000004EC000004CC00000A4
:100020004AC0000048C0000046C0000044C00000B4
:1000300042C0000040C000003EC000003CC00000C4
:100040003AC0000038C0000036C0000034C00000D4
:1000500032C0000030C000002EC000002CC00000E4
:100060002AC0000028C0000026C0000024C00000F4
:1000700022C0000020C000001EC000001CC0000004
:100080001AC0000018C0000016C0000011241FBED6
:10009000CFEFD0E1DEBFCDBF11E0A0E0B1E0EAECF0
:1000A000F6E000E00BBF02C007900D92AC31B10743
:1000B000D9F775D108C3A4CF21E030E002C0220FE8
:1000C000331F8A95E2F7209365006031710530F4A3
:1000D000FB01E55FFE4F808185BB03C080910A0173
:1000E00085BB8FE39FE10197F1F700C00000089501
:1000F0008FEF84BB8FE08093640015BA1092650087
:10010000089521E030E002C0220F331F8A95E2F704
:10011000209365006A30710530F4FB01E050FF4F19
:10012000808185BB03C080910A0185BB8FE39FE17D
:100130000197F1F700C000000895CF93DF93C0E06E
:10014000D0E005C06FEF7FEFCE01B6DF2196C4305F
:10015000D105C4F3DF91CF910895CF92DF92EF9252
:10016000FF920F931F93CF93DF936B017C012DECD4
:100170003CEC47EC52EC32D188234CF02AE939EFC1
:1001800049E754E4C701B601E8D1181614F4D5DFE5
:100190003AC020E030E040E251E4C701B601E1D1CD
:1001A00021D18B01772324F400271127061B170B7D
:1001B000C0E0D0E017C0C8016AE070E05DD2C13095
:1001C000D10521F0BC01CE0177DF03C0BC01CE0117
:1001D00098DF0A3011054CF0C8016AE070E04CD29B
:1001E0008B012196C430D10534F320E030E0A90121
:1001F000C701B601F3D0882334F460910A0170E09E
:10020000CE01019659DFDF91CF911F910F91FF90A1
:10021000EF90DF90CF90089580EC80937000E1E73D
:10022000F0E080818C7F8083089580917400882322
:10023000E4F780917100887F08958093730084E8CB
:1002400080937400F2CF0895CF93DF93C4E7D0E09A
:1002500084EC8883EADF84E88883E7DF8091730099
:10026000DF91CF91089511BA83E082BB80B58B7F77
:1002700080BDD2CF0895FC01208130E0322F2227AB
:100280008181A901482BCA0199231CF021E030E0AB
:1002900002C02FEF3FEFBC01992324F46627772794
:1002A000681B790B660F672F661F770B33231CF4CF
:1002B000719561957109072E000C880B990BC5D0BB
:1002C00020E030E040E05FE34CC10895EF92FF9200
:1002D0000F931F93CF93DF93C82F8B01D42F0F2E33
:1002E000F4E7EF2EF12CF02D84EAF70180839DDFF7
:1002F000C093730084E8F7018083C0E006C0F80172
:10030000EC0FF11D808199DFCF5FCD17C0F384E939
:1003100080937400DF91CF911F910F91FF90EF9028
:100320000895EF92FF920F931F93CF93DF93C82FFF
:100330007A01D22F8E7F41E050E090E0C7DF84EA5F
:100340008093740072DFC0937300C0E007C0870120
:100350000C0F111D79DFF8018083CF5FCD17B8F343
:1003600084E980937400DF91CF911F910F91FF90EA
:10037000EF900895CF93DF9300D0CDB7DEB781E043
:1003800089831A8242E050E0BE016F5F7F4F88E9A7
:1003900090E09CDF0F900F90DF91CF910895CF9365
:1003A000DF9300D01F92CDB7DEB71B82A1DE5BDFEB
:1003B000E1DF22E0AE014F5F5F4FBE016D5F7F4F17
:1003C00089E9AFDF80E090E001C001968E319105B0
:1003D000E4F3CE0101964FDFC0DEEBCF71D008F41D
:1003E00081E0089504D06894B111B1C0089594D00B
:1003F00088F09F5790F0B92F9927B751A0F0D1F00E
:10040000660F771F881F991F1AF0BA95C9F712C097
:10041000B13081F09BD0B1E0089598C0672F782F5C
:100420008827B85F39F0B93FCCF386957795679503
:10043000B395D9F73EF490958095709561957F4F6F
:100440008F4F9F4F0895E89409C097FB3EF4909515
:100450008095709561957F4F8F4F9F4F9923A9F09D
:10046000F92F96E9BB279395F6958795779567952C
:10047000B795F111F8CFFAF4BB0F11F460FF1BC070
:100480006F5F7F4F8F4F9F4F16C0882311F096E903
:1004900011C0772321F09EE8872F762F05C06623B1
:1004A00071F096E8862F70E060E02AF09A95660F6A
:1004B000771F881FDAF7880F9695879597F9089523
:1004C000990F0008550FAA0BE0E8FEEF1616170665
:1004D000E807F907C0F012161306E407F50798F0CD
:1004E000621B730B840B950B39F40A2661F0232BE6
:1004F000242B252B21F408950A2609F4A140A69562
:100500008FEF811D811D089557FD9058440F551F91
:1005100059F05F3F71F04795880F97FB991F61F085
:100520009F3F79F087950895121613061406551FFC
:10053000F2CF4695F1DF08C0161617061806991F68
:10054000F1CF86957105610508940895E894BB275D
:1005500066277727CB0197F90895B2DF08F48FEF6C
:1005600008950BD078C069D028F06ED018F095238C
:1005700009F05AC05FC01124EACFC6DFA0F3959FEF
:10058000D1F3950F50E0551F629FF001729FBB277A
:10059000F00DB11D639FAA27F00DB11DAA1F649F26
:1005A0006627B00DA11D661F829F2227B00DA11DD9
:1005B000621F739FB00DA11D621F839FA00D611D5F
:1005C000221F749F3327A00D611D231F849F600D80
:1005D000211D822F762F6A2F11249F5750408AF0B9
:1005E000E1F088234AF0EE0FFF1FBB1F661F771F45
:1005F000881F91505040A9F79E3F510570F014C0DC
:10060000A6CF5F3FECF3983EDCF386957795679530
:10061000B795F795E7959F5FC1F7FE2B880F911D62
:100620009695879597F9089597F99F6780E870E008
:1006300060E008959FEF80EC089500240A94161658
:10064000170618060906089500240A9412161306C0
:10065000140605060895092E0394000C11F488234E
:1006600052F0BB0F40F4BF2B11F460FF04C06F5F6A
:100670007F4F8F4F9F4F089597FB072E16F40094DE
:1006800006D077FD08D00BD007FC05D03EF490953E
:1006900081959F4F0895709561957F4F0895AA1B8E
:1006A000BB1B51E107C0AA1FBB1FA617B70710F05D
:1006B000A61BB70B881F991F5A95A9F7809590958F
:0A06C000BC01CD010895F894FFCFAE
:1006CA00AF86DBCFE6EDFD87FFEF403F065B4F6667
:0C06DA006D7D077F6F777C395E797100C1
:00000001FF
