S01700004763634170706C69636174696F6E322E737265635A
S113000045C000004BC0000049C0000047C00000CC
S113001045C0000043C0000041C000003FC00000D4
S11300203DC000003BC0000039C0000037C00000E4
S113003035C0000033C0000031C000002FC00000F4
S11300402DC000002BC0000029C0000027C0000004
S113005025C0000023C0000021C000001FC0000014
S11300601DC000001BC0000019C0000017C0000024
S113007015C0000013C0000011C000000FC0000034
S11300800DC000000BC0000009C0000011241FBEF9
S1130090CFEFD0E1DEBFCDBFC9D15DC4B1CF88B34E
S11300A0806488BB88B38F7788BB089588B38F7BBF
S11300B088BB88B3806888BB089588B3806C88BB8C
S11300C008958F929F92AF92BF92CF92DF92EF9258
S11300D0FF9228B3206428BB28B32F7728BB2DECCC
S11300E03CEC4CE45EE3D4D36B017C0120E030E0D3
S11300F04AE755E4CDD34B015C0120E030E040E811
S11301005FE3B5D2882304F120E03FEF4FE757E4E3
S1130110C501B401B9D318169CF420E030E040E2E4
S113012051E4C701B601B4D30ED306C080E991E00F
S11301300197F1F76150710961157105B9F709C0AB
S1130140C501B40100D302C061E070E0CB010197A6
S1130150F1F7B3DFA701960160E070E080EA91E473
S113016021D24B015C0120E030E04AE755E490D312
S11301706B017C0120E030E040E85FE378D2882323
S113018004F120E03FEF4FE757E4C701B6017CD309
S113019018169CF420E030E040E251E4C501B401BB
S11301A077D3D1D206C080E991E00197F1F761508D
S11301B0710961157105B9F709C0C701B601C3D248
S11301C002C061E070E0CB010197F1F7FF90EF907E
S11301D0DF90CF90BF90AF909F908F9008954F92F3
S11301E05F926F927F928F929F92AF92BF92CF92C3
S11301F0DF92EF92FF92CF93DF9328B32F7B28BB3C
S113020028B3206828BB20E030E048E453E440D31E
S11302106B017C012BEA3AEA4AEA50E439D34B01F8
S11302205C0120E030E040E850E4C701B60130D37F
S11302302B013C0120E030E040E85FE3C501B4015C
S113024016D288230CF45CC020E03FEF4FE757E45C
S1130250C301B20119D318160CF03DC020E030E000
S11302604AE754E4C701B60106D22B013C0120E061
S113027030E04AE755E40CD34B015C0120E030E068
S113028040E85FE3F4D1882304F120E03FEF4FE737
S113029057E4C501B401F8D218169CF420E030E00C
S11302A040E251E4C301B201F3D24DD206C080E969
S11302B091E00197F1F76150710961157105B9F782
S11302C020C0C501B4013FD202C061E070E0CB019F
S11302D00197F1F716C020E030E04FE753E4C50181
S11302E0B401D2D218163CF4C301B2012CD2CB0112
S11302F00197F1F709C0C501B40125D2D62F01C079
S1130300D1E06D2F6A95F1F7D8DEA701960160E080
S113031070E48CE996E446D16B017C012BEA3AEA5D
S11303204AEA50E4B5D24B015C0120E030E040E8F9
S113033050E4C701B601ACD22B013C0120E030E00F
S113034040E85FE3C501B40192D188230CF45CC09A
S113035020E03FEF4FE757E4C301B20195D21816EE
S11303600CF03DC020E030E04AE754E4C701B60198
S113037082D14B015C0120E030E04AE755E488D2A9
S11303806B017C0120E030E040E85FE370D188231A
S113039004F120E03FEF4FE757E4C701B60174D200
S11303A018169CF420E030E040E251E4C501B401A9
S11303B06FD2C9D106C080E991E00197F1F761508D
S11303C0710961157105B9F720C0C701B601BBD128
S11303D002C061E070E0CB010197F1F716C020E0A4
S11303E030E04FE753E4C501B4014ED218163CF493
S11303F0C301B201A8D1CB010197F1F708C0C5012F
S1130400B401A1D1C62F01C0C1E0CA95F1F7DF91B3
S1130410CF91FF90EF90DF90CF90BF90AF909F90DF
S11304208F907F906F905F904F9008958FEF87BB70
S113043036DE80EA9FE00197F1F731DE80E395E74D
S113044005C0E0E9F1E03197F1F701970097C9F7AA
S113045034DE80E197E205C0E0E9F1E03197F1F79D
S113046001970097C9F722DE80E395E705C0E0E92C
S1130470F1E03197F1F701970097C9F71EDE80E1AB
S113048097E205C0E0E9F1E03197F1F701970097B1
S1130490C9F7C12CD12C760113C0C701B60111DEF6
S11304A0219602C0C0E0D0E0C436D105B4F320E008
S11304B030E040E251E4C701B60175D06B017C0124
S11304C020E030E048EC52E4C701B601D0D0181661
S11304D04CF70F2EC12CD12CF8ECEF2EF2E4FF2EAA
S11304E0F02D13C0C701B601ECDD219602C0C0E0B7
S11304F0D0E0C436D105B4F320E030E040E251E46A
S1130500C701B6014FD06B017C0120E030E0A901A6
S1130510C701B601B9D1882354F7C12CD12C760177
S113052013C0C701B6015BDE219602C0C0E0D0E073
S1130530C436D105B4F320E030E040E251E4C70111
S1130540B60131D06B017C0120E030E048EC52E48C
S1130550C701B6018CD018164CF70F2EC12CD12C24
S1130560F8ECEF2EF2E4FF2EF02D13C0C701B60114
S113057036DE219602C0C0E0D0E0C436D105B4F323
S113058020E030E040E251E4C701B6010BD06B013A
S11305907C0120E030E0A901C701B60175D18823B0
S11305A054F74BCF5058BB27AA270ED033C124D1C0
S11305B030F029D120F031F49F3F11F41EF419C119
S11305C00EF4E095E7FB0FC1E92F35D180F3BA179C
S11305D0620773078407950718F071F49EF54DC1FF
S11305E00EF4E0950B2EBA2FA02D0B01B90190014A
S11305F00C01CA01A0011124FF27591B99F0593F8E
S113060050F4503E68F11A16F040A22F232F342FD5
S11306104427585FF3CF469537952795A795F04023
S11306205395C9F77EF41F16BA0B620B730B840B38
S1130630BAF09150A1F0FF0FBB1F661F771F881FF0
S1130640C2F70EC0BA0F621F731F841F48F4879548
S113065077956795B795F7959E3F08F0B3CF939537
S1130660880F08F09927EE0F97958795089597D0EE
S113067008F481E008950CD0CDC0C5D040F0BCD0C2
S113068030F021F45F3F19F0AEC05111F7C0B1C092
S1130690D2D098F39923C9F35523B1F3951B550B85
S11306A0BB27AA2762177307840738F09F5F5F4F41
S11306B0220F331F441FAA1FA9F333D00E2E3AF082
S11306C0E0E830D091505040E695001CCAF729D09C
S11306D0FE2F27D0660F771F881FBB1F26173707EB
S11306E04807AB07B0E809F0BB0B802DBF01FF271B
S11306F093585F4F2AF09E3F510568F074C0BEC006
S11307005F3FECF3983EDCF3869577956795B79554
S1130710F7959F5FC9F7880F911D9695879597F96F
S11307200895E1E0660F771F881FBB1F62177307E8
S11307308407BA0720F0621B730B840BBA0BEE1FFD
S113074088F7E09508957FD088F09F5790F0B92FEF
S11307509927B751A0F0D1F0660F771F881F991F12
S11307601AF0BA95C9F712C0B13081F086D0B1E061
S1130770089583C0672F782F8827B85F39F0B93F71
S1130780CCF3869577956795B395D9F73EF4909514
S11307908095709561957F4F8F4F9F4F0895990F66
S11307A00008550FAA0BE0E8FEEF16161706E80737
S11307B0F907C0F012161306E407F50798F0621B58
S11307C0730B840B950B39F40A2661F0232B242B2D
S11307D0252B21F408950A2609F4A140A6958FEF4C
S11307E0811D811D089597F99F6780E870E060E09E
S11307F008959FEF80EC089500240A9416161706B6
S113080018060906089500240A94121613061406FD
S113081005060895092E0394000C11F4882352F060
S1130820BB0F40F4BF2B11F460FF04C06F5F7F4F18
S11308308F4F9F4F089557FD9058440F551F59F0FF
S11308405F3F71F04795880F97FB991F61F09F3FB9
S113085079F087950895121613061406551FF2CFE2
S11308604695F1DF08C0161617061806991FF1CF32
S113087086957105610508940895E894BB27662759
S11308807727CB0197F908958ADF08F48FEF08954D
S11308900BD0C0CFB1DF28F0B6DF18F0952309F0F4
S11308A0A2CFA7CF1124EACFC6DFA0F3959FD1F33F
S11308B0950F50E0551F629FF001729FBB27F00D0A
S11308C0B11D639FAA27F00DB11DAA1F649F66275F
S11308D0B00DA11D661F829F2227B00DA11D621FAE
S11308E0739FB00DA11D621F839FA00D611D221F68
S11308F0749F3327A00D611D231F849F600D211D4C
S1130900822F762F6A2F11249F5750408AF0E1F0EE
S113091088234AF0EE0FFF1FBB1F661F771F881F37
S113092091505040A9F79E3F510570F05CCFA6CF7F
S11309305F3FECF3983EDCF3869577956795B79522
S1130940F795E7959F5FC1F7FE2B880F911D96954C
S10D0950879597F90895F894FFCFF6
S9030000FC
