:1000000045C0000060C000005EC000005CC0000091
:100010005AC0000058C0000056C0000054C0000084
:1000200052C0000050C000004EC000004CC0000094
:100030004AC0000048C0000046C0000044C00000A4
:1000400043C0000040C000003EC000003CC00000B3
:100050003AC0000038C0000036C0000034C00000C4
:1000600032C0000030C000002EC000002CC00000D4
:100070002AC0000028C0000026C0000024C00000E4
:1000800022C0000020C000001EC0000011241FBEBE
:10009000CFEFD0E1DEBFCDBF11E0A0E0B1E0E6E8F8
:1000A000F2E000E00BBF02C007900D92A231B10751
:1000B000D9F721E0A2E1B1E001C01D92A631B2075B
:1000C000E1F740D0DEC09CCF1F920F920FB60F9287
:1000D00011242F933F938F939F9386E082BF80914B
:1000E0001401909115019C012F5F3F4F3093150132
:1000F00020931401883E9340A1F4809112019091C5
:10010000130101969093130180931201109215012F
:10011000109214018031974221F410921301109231
:1001200012019F918F913F912F910F900FBE0F90D1
:100130001F901895789484E083BF86E082BF81E0A9
:1001400087BF089507D0F6DF8091120190911301C7
:1001500036D0FACF8FEF84BB8FE08093640015BA5E
:1001600010926500089521E030E002C0220F331F95
:100170008A95E2F7209365006031710530F4FB0148
:10018000EF5FFE4F808185BB03C08091000185BB7E
:100190008FE39FE10197F1F700C000000895CF932E
:1001A000DF93C0E0D0E005C06FEF7FEFCE01DBDF73
:1001B0002196C430D105C4F3DF91CF910895EF9219
:1001C000FF920F931F93CF93DF937C0189519C4F34
:1001D000873F9A4210F0E3DF26C0E701FF2024F4B6
:1001E000CC27DD27CE19DF0900E010E011C0CE01D9
:1001F0006AE070E01FD0BC01C801B5DFCA30D1058C
:1002000054F0CE016AE070E015D0EB010F5F1F4F94
:100210000430110564F3FF2034F46091000170E0B4
:10022000C8010196A0DFDF91CF911F910F91FF9040
:10023000EF90089597FB072E16F4009406D077FDF3
:1002400008D00BD007FC05D03EF4909581959F4FC8
:100250000895709561957F4F0895AA1BBB1B51E1CE
:1002600007C0AA1FBB1FA617B70710F0A61BB70B26
:10027000881F991F5A95A9F780959095BC01CD01CB
:060280000895F894FFCF81
:10028600403F065B4F666D7D077F6F777C395E79F1
:020296007100F5
:00000001FF
