:1000000045C0000060C000005EC000005CC0000091
:100010005AC0000058C0000056C0000054C0000084
:1000200052C0000050C000004EC000004CC0000094
:100030004AC0000048C0000046C0000044C00000A4
:1000400042C0000040C000003EC000003CC00000B4
:100050003AC0000038C0000036C0000034C00000C4
:1000600032C0000030C000002EC000002CC00000D4
:100070002AC0000028C0000026C0000024C00000E4
:1000800022C0000020C000001EC0000011241FBEBE
:10009000CFEFD0E1DEBFCDBF15E0A0E0B1E0E2EBF5
:1000A000F0E100E00BBF02C007900D92AE31B10746
:1000B000D9F729E0AEE1B5E001C01D92AE31B2073B
:1000C000E1F77FD6F4C79CCF8CE08093700010924C
:1000D00071000895809174008823E4F78091710085
:1000E000887F08958093730084E880937400F2CF32
:1000F0000895EF92FF920F931F93CF93DF93D82F22
:100100007B018A01C22F84EA80937400E3DF883187
:1001100051F0803241F08830F1F4D093730084E8DC
:1001200080937400F3CFC11102C080E0DBDFC130E7
:1001300011F480E4D7DFC0E0D0E006C0F701EC0F97
:10014000FD1F8081CFDF2196C017D107B8F384E966
:100150008093740080E0DF91CF911F910F91FF9009
:10016000EF900895CF93DF931F92CDB7DEB78983C9
:1001700020E041E050E0BE016F5F7F4F88E7B9DFCC
:100180000F90DF91CF91089588EAECDF8FE3EADFEB
:1001900083EDE8DF80E0E6DF80E4E4DF81EAE2DFB0
:1001A00088ECE0DF8AEDDEDF82E1DCDF81E8DADFA8
:1001B0008FEFD8DF84EAD6DF86EAD4DF85EDD2DFA1
:1001C00080E8D0DF8DE8CEDF84E1CCDF8EE2CADFCD
:1001D0008FEAC8CF0895CF93DF93D82FC62F80E240
:1001E000C1DF82E0BFDF8D2F806BBCDF8C2F8F7073
:1001F000B9DF8C2F82958F708061B4DFDF91CF9152
:1002000008950F931F93CF93DF93D82FC62F042FFA
:10021000122F80E2A7DF80E0A5DF81E2A3DF802F3D
:10022000A1DF812F9FDF82E29DDF8D2F9BDF8C2F4F
:1002300099DFDF91CF911F910F9108958EE292CFB8
:1002400008950F931F93CF93DF93082F162FC42F7A
:10025000D22F8EE287DF002319F087E283DF02C00E
:1002600086E280DF80E07EDF812F7CDF8D2F7ADFEA
:100270008C2F78DF80E076DF8FEF74DF8FE272DF24
:10028000DF91CF911F910F91089580E090E005C01C
:10029000FC01E25EFA4F10820196811524E092077C
:1002A000BCF308952FE740E067E080E0AADF21E09B
:1002B00040E054E06EE175E088E71BCF0895E5DF8C
:1002C000F1CF0895F901362F36953695369567703A
:1002D000608390E020E8329F800D911D1124FA0187
:1002E000918380830895CF93DF9300D01F92CDB781
:1002F000DEB78823C4F06034B0F49E012F5F3F4F17
:10030000AE014E5F5F4FDEDFEA81FB81E25EFA4FB6
:10031000208181E090E0098002C0880F991F0A9433
:10032000E2F7822B80830F900F900F90DF91CF9197
:1003300008952F923F924F925F926F927F928F9289
:100340009F92AF92BF92CF92DF92EF92FF920F9364
:100350001F93CF93DF938C017B014A011901CA01DE
:10036000801B910B6C0122F4CC24DD24C81AD90A1D
:10037000C1018E199F095C0122F4AA24BB24A81A8A
:10038000B90A0815190524F444244394512C03C0D8
:1003900044244A94542CE214F30424F46624639411
:1003A000712C03C066246A94762CAC14BD043CF412
:1003B000E601DD200CF42196D595C7950AC0CC271F
:1003C000DD27CA19DB090AF42196D595C79501C026
:1003D000EC016E2D802F87DF0815190519F4E21442
:1003E000F304B9F0882799278C199D098C179D076C
:1003F00034F4CE018A199B09040D151D01C0CE01EC
:10040000CA15DB052CF7EC01CC0DDD1DE60CF71C45
:10041000E0CFDF91CF911F910F91FF90EF90DF9090
:10042000CF90BF90AF909F908F907F906F905F9094
:100430004F903F902F9008953F924F925F926F920E
:100440007F928F929F92AF92BF92CF92DF92EF9264
:10045000FF920F931F93CF93DF936C017B018A016F
:10046000290181E090E05C01A41AB50AC0E0D0E067
:100470004114510449F1B8016E0D7F1D9B014E01DD
:100480008C0C9D1CA40136016C1A7D0AC30151DF3E
:10049000B701601B710B9B01A401C3014ADFBE01C0
:1004A0006E0D7F1D9B0148018C0C9D1CA401360123
:1004B000601A710AC3013DDFB7016C1B7D0B9B0104
:1004C000A401C30136DF28C08E2C800E682D7C2E3F
:1004D0007C0C872D08DF9C2E9E0C692D6C2C600EE9
:1004E000862D01DF682D8C2C8C1A882DFCDE692D61
:1004F0009C2C901A892DF7DE3E2C3C1A632D862DFC
:10050000F2DE6E2C601A662D872DEDDE662D882DAD
:10051000EADE632D892DE7DEBB2044F4CE01880F8F
:10052000991F0396A80EB91E21960BC0CE01801B01
:10053000910B880F991F0596A80EB91E015011093D
:1005400021960C171D070CF093CFDF91CF911F91CF
:100550000F91FF90EF90DF90CF90BF90AF909F9062
:100560008F907F906F905F904F903F900895CF92C3
:10057000DF92EF92FF920F931F93CF93DF93EC01E3
:100580007B016A0189019B01D4DE9801A601B701B4
:10059000C601CFDE9801AE01B801C601CADE9701DF
:1005A000AE01B801CE01C5DEDF91CF911F910F9151
:1005B000FF90EF90DF90CF9008952F923F924F924F
:1005C0005F926F927F928F929F92AF92BF92CF92E3
:1005D000DF92EF92FF920F931F93CF93DF93EC0183
:1005E0001B0169017A0160E070E080E89FE3EDD3D0
:1005F0004B015C01288139814A815B81F5D42B0153
:100600003C01F1012081318142815381C701B60152
:10061000EBD49B01AC01C301B201D8D3F8016083D4
:100620007183828393832C813D814E815F81C501DB
:10063000B401DAD44B015C01F1012481358146819A
:100640005781C701B601D0D49B01AC01C501B401EB
:10065000BDD3F8016483758386839783DF91CF913F
:100660001F910F91FF90EF90DF90CF90BF90AF90D0
:100670009F908F907F906F905F904F903F902F90C2
:1006800008954F925F926F927F92AF92BF92CF92F6
:10069000DF92EF92FF920F931F93CF93DF93CDB72B
:1006A000DEB760970FB6F894DEBF0FBECDBF6B010B
:1006B0005A01280139018E010F5F1F4FA3019201DA
:1006C0007CDF085F1F4FA3019201B501C60175DFF2
:1006D0008701A3019201BE01675F7F4FCE010196A2
:1006E0006CDF60960FB6F894DEBF0FBECDBFDF9112
:1006F000CF911F910F91FF90EF90DF90CF90BF901F
:10070000AF907F906F905F904F9008952F923F929F
:100710004F925F926F927F928F929F92AF92BF9211
:10072000CF92DF92EF92FF920F931F93CF93DF93BD
:10073000CDB7DEB760970FB6F894DEBF0FBECDBF62
:100740005B014A011901270138019E012F5F3F4FCC
:1007500079019301820195DFCE0109967C01930115
:100760008201A101B401C5018CDF8601A3019201C0
:10077000B701CE01019621DF60960FB6F894DEBF77
:100780000FBECDBFDF91CF911F910F91FF90EF90E2
:10079000DF90CF90BF90AF909F908F907F906F90A1
:1007A0005F904F903F902F9008952F923F924F92DD
:1007B0005F926F927F928F929F92AF92BF92CF92F1
:1007C000DF92EF92FF920F931F93CF93DF93CDB7FA
:1007D000DEB76C970FB6F894DEBF0FBECDBF1C011D
:1007E0007A8F698F5C8F4B8FFC0180819181A28110
:1007F000B38189879A87AB87BC8784819581A681DD
:10080000B7818D879E87AF87B88B8DEC9CECACEC65
:10081000BDE3898B9A8BAB8BBC8B53C0DE011196E9
:100820007D0109891A892B893C894B8D5C8D698DE5
:100830007A8DC10126DF6D817E818F819885498007
:100840005A806B807C80CD84DE84EF84F888898434
:100850009A84AB84BC8422D36D8B7E8B8F8B988FD4
:10086000C301B2011BD32B013C01C701B60116D352
:100870006B017C01C501B40111D3DC01CB012D89D1
:100880003E89A201B60155DD89819A81AB81BC8187
:1008900089879A87AB87BC878D819E81AF81B88518
:1008A0008D879E87AF87B88B2DEC3CEC4CEC5DE3DD
:1008B00069897A898B899C8989D2698B7A8B8B8BA0
:1008C0009C8B2DEC3CEC4CE85FE369897A898B8941
:1008D0009C89E0D288230CF4A1CF6C960FB6F894D3
:1008E000DEBF0FBECDBFDF91CF911F910F91FF9063
:1008F000EF90DF90CF90BF90AF909F908F907F90C0
:100900006F905F904F903F902F9008952F923F925D
:100910004F925F926F927F928F929F92AF92BF920F
:10092000CF92DF92EF92FF920F931F93CF93DF93BB
:10093000CDB7DEB76E970FB6F894DEBF0FBECDBF52
:100940001C017A8F698F5C8F4B8F3E8F2D8FFC013E
:1009500080819181A281B38189879A87AB87BC8787
:1009600084819581A681B7818D879E87AF87B88B5B
:100970008DEC9CECACECBDE3898B9A8BAB8BBC8B88
:1009800055C0DE0111966D01E988FA880B891C8932
:100990002D8D3E8D4B8D5C8D698D7A8DC101B6DEBE
:1009A0006D817E818F81988549805A806B807C80A3
:1009B000CD84DE84EF84F88889849A84AB84BC84F7
:1009C0006DD26D8B7E8B8F8B988FC301B20166D2F7
:1009D0002B013C01C701B60161D26B017C01C5014D
:1009E000B4015CD2DC01CB012D893E89A201B601A4
:1009F000A0DC89819A81AB81BC8189879A87AB878A
:100A0000BC878D819E81AF81B8858D879E87AF879A
:100A1000B88B2DEC3CEC4CEC5DE369897A898B89D1
:100A20009C89D4D1698B7A8B8B8B9C8B2DEC3CEC85
:100A30004CE85FE369897A898B899C892BD288236A
:100A40000CF49FCF6E960FB6F894DEBF0FBECDBFED
:100A5000DF91CF911F910F91FF90EF90DF90CF909A
:100A6000BF90AF909F908F907F906F905F904F90CE
:100A70003F902F900895CF93962FC42F682F660F25
:100A8000660F660F892FA7DB6C2F70E0660F771F4C
:100A9000660F771F660F771F625E7E4F21E048E08A
:100AA00050E088E726DBCF910895FF920F931F93C4
:100AB000CF93DF93D82FF62E8A01C0E0F801EC0F18
:100AC000F11D40816F2D8C2F8D0FD5DFCF5FF80189
:100AD000EC0FF11D8081882331F08C2F90E08D0F79
:100AE000911D40975CF3DF91CF911F910F91FF9083
:100AF0000895CF93C0E008C06C2F62956F704C2FA3
:100B00008C2F8F70B8DFCF5FCC23B4F7CF910895CF
:100B100011BA83E082BB80B58B7F80BDD5CA0895B2
:100B2000F7DF32DBE6DF2FEF8BE792E921508040E1
:100B30009040E1F700C0000040E151E060E080E05B
:100B4000B4CF08954F925F926F927F928F929F924F
:100B5000AF92BF92CF92DF92EF92FF92CF93DF934B
:100B6000CDB7DEB7A4970FB6F894DEBF0FBECDBFEA
:100B700019821A821B821C821D821E821F82188685
:100B800088E0E0E0F1E0DE01199601900D928A958F
:100B9000E1F780E090E0A0EAB2E4898B9A8BAB8B1E
:100BA000BC8B1D8A1E8A1F8A188E88E0E8E0F1E05F
:100BB000DE01599601900D928A95E1F7A9DFE4DAFA
:100BC0007EDB24E130E044E150E060E070E080E072
:100BD00090E0CDDC24E130E044E150E060E070E002
:100BE00080E090E0A6DB24E130E040E050E060E00F
:100BF00070E084E190E09DDB20E030E04AE050E0EE
:100C00006AE070E08AE090E017DC29E230E049E237
:100C100050E065E170E085E190E0A9DC21E030E0A2
:100C20004AE050E06FE170E08FE190E005DC3ADBF4
:100C30002FEF8BE792E9215080409040E1F700C010
:100C400000003DDB6D857E858F85988949845A84B7
:100C50006B847C848D809E80AF80B884C980DA806C
:100C6000EB80FC801BD169A37AA38BA39CA3C30157
:100C7000B20114D12B013C01C501B4010FD14B01CC
:100C80005C01C701B6010AD1DC01CB0129A13AA15F
:100C9000A201B4014EDB6D897E898F89988D4988C8
:100CA0005A886B887C888D849E84AF84B888C98478
:100CB000DA84EB84FC84F2D069A37AA38BA39CA38F
:100CC000C301B201EBD02B013C01C501B401E6D058
:100CD0004B015C01C701B601E1D0DC01CB0129A1C8
:100CE0003AA1A201B40125DB6D8D7E8D8F8D98A177
:100CF000498C5A8C6B8C7C8C8D889E88AF88B88C84
:100D0000C988DA88EB88FC88C9D069A37AA38BA349
:100D10009CA3C301B201C2D02B013C01C501B401A7
:100D2000BDD04B015C01C701B601B8D0DC01CB01DD
:100D300029A13AA1A201B401FCDAAE014F5E5F4FD6
:100D4000BE01675F7F4FCE0101962FDD9E01275EBA
:100D50003F4FAE014F5E5F4FBE01675F7F4FCE01D9
:100D60000196D4DD9FDA2FEF8BE792E92150804086
:100D70009040E1F700C00000A4960FB6F894DEBFE3
:100D80000FBECDBFDF91CF91FF90EF90DF90CF905E
:100D9000BF90AF909F908F907F906F905F904F909B
:100DA000089520E047E060E080E04BDA2FEF8BE72A
:100DB00092E9215080409040E1F700C000003ECA17
:100DC0000895AEDEBFDEEDDFFFCF5058BB27AA2768
:100DD0000ED0D0C0C1D030F0C6D020F031F49F3F4B
:100DE00011F41EF4B6C00EF4E095E7FBACC0E92F99
:100DF000D2D080F3BA17620773078407950718F0FB
:100E000071F49EF5EAC00EF4E0950B2EBA2FA02DDA
:100E10000B01B90190010C01CA01A0011124FF27A7
:100E2000591B99F0593F50F4503E68F11A16F040A2
:100E3000A22F232F342F4427585FF3CF46953795A1
:100E40002795A795F0405395C9F77EF41F16BA0B66
:100E5000620B730B840BBAF09150A1F0FF0FBB1F14
:100E6000661F771F881FC2F70EC0BA0F621F731F5D
:100E7000841F48F4879577956795B795F7959E3FBA
:100E800008F0B3CF9395880F08F09927EE0F979548
:100E90008795089534D008F481E0089504D06894CB
:100EA000B1119CC008957FD088F09F5790F0B92F62
:100EB0009927B751A0F0D1F0660F771F881F991FAF
:100EC0001AF0BA95C9F712C0B13081F086D0B1E0FE
:100ED000089583C0672F782F8827B85F39F0B93F0E
:100EE000CCF3869577956795B395D9F73EF49095B1
:100EF0008095709561957F4F8F4F9F4F0895990F03
:100F00000008550FAA0BE0E8FEEF16161706E807D3
:100F1000F907C0F012161306E407F50798F0621BF4
:100F2000730B840B950B39F40A2661F0232B242BC9
:100F3000252B21F408950A2609F4A140A6958FEFE8
:100F4000811D811D089597F99F6780E870E060E03A
:100F500008959FEF80EC089500240A941616170652
:100F600018060906089500240A941216130614069A
:100F700005060895092E0394000C11F4882352F0FD
:100F8000BB0F40F4BF2B11F460FF04C06F5F7F4FB5
:100F90008F4F9F4F089557FD9058440F551F59F09C
:100FA0005F3F71F04795880F97FB991F61F09F3F56
:100FB00079F087950895121613061406551FF2CF7F
:100FC0004695F1DF08C0161617061806991FF1CFCF
:100FD00086957105610508940895E894BB276627F6
:100FE0007727CB0197F908950BD0C4CFB5DF28F050
:100FF000BADF18F0952309F0A6CFABCF1124EECFBE
:10100000CADFA0F3959FD1F3950F50E0551F629F63
:10101000F001729FBB27F00DB11D639FAA27F00D51
:10102000B11DAA1F649F6627B00DA11D661F829F78
:101030002227B00DA11D621F739FB00DA11D621F5D
:10104000839FA00D611D221F749F3327A00D611D7A
:10105000231F849F600D211D822F762F6A2F11245C
:101060009F5750408AF0E1F088234AF0EE0FFF1FAF
:10107000BB1F661F771F881F91505040A9F79E3FE6
:10108000510570F060CFAACF5F3FECF3983EDCF3E0
:10109000869577956795B795F795E7959F5FC1F723
:1010A000FE2B880F911D9695879597F90895F894D2
:0210B000FFCF70
:1010B2000000204200007C420000FE4200007C4210
:1010C20048656C6C6F2C20576F726C6421000000B5
:1010D200000000000000000000000000000000000E
:1010E20000000000000000000000000000000000FE
:1010F20000000000000000000000000000000000EE
:1011020000000000000000000000000000000000DD
:1011120000000000000000000000000000000000CD
:1011220000000000000000000000000000000000BD
:1011320000000000000000000000000000000000AD
:10114200000000000000000000000000000000009D
:10115200000000000000000000000000000000008D
:10116200000000000000000000000000000000007D
:10117200000000000000000000000000000000006D
:10118200000000000000000000000000000000005D
:10119200000000000000000000000000000000004D
:1011A200000000000000000000000000000000003D
:1011B200000000000000000000000000000000002D
:1011C200000000000000000000000000000000001D
:1011D20000000000000000005F00000000000007A7
:1011E200000700000000147F147F14000000242A6E
:1011F2007F2A1200000023130864620000003649AF
:101202005522500000000005030000000000001CF1
:101212002241000000000041221C000000001408CE
:101222003E081400000008083E08080000000050B4
:1012320030000000000008080808080000000060F4
:1012420060000000000020100804020000003E516F
:1012520049453E00000000427F400000000042611C
:101262005149460000002141454B3100000018144D
:10127200127F1000000027454545390000003C4A16
:101282004949300000000171090503000000364998
:10129200494936000000064949291E00000000366F
:1012A200360000000000005636000000000008145E
:1012B2002241000000001414141414000000412202
:1012C2001408000000000201510906000000324922
:1012D20079413E0000007E1111117E0000007F491D
:1012E2004949360000003E414141220000007F4151
:1012F20041221C0000007F494949410000007F094A
:101302000909010000003E4149497A0000007F08B6
:1013120008087F00000000417F41000000002040DB
:10132200413F010000007F081422410000007F407D
:101332004040400000007F020C027F0000007F045A
:1013420008107F0000003E4141413E0000007F093D
:101352000909060000003E4151215E0000007F099C
:10136200192946000000464949493100000001019F
:101372007F01010000003F4040403F0000001F206D
:1013820040201F0000003F4038403F00000063142F
:10139200081463000000070870080700000061518C
:1013A200494543000000007F414100000000020463
:1013B2000810200000000041417F000000000402EC
:1013C20001020400000040404040400000000102D1
:1013D20004000000000020545454780000007F48AC
:1013E200444438000000384444442000000038449B
:1013F20044487F0000003854545418000000087E0E
:101402000901020000000C5252523E0000007F0807
:1014120004047800000000447D40000000002040E9
:10142200443D000000007F102844000000000041FD
:101432007F40000000007C041804780000007C0853
:1014420004047800000038444444380000007C144E
:10145200141408000000081414187C0000007C0812
:101462000404080000004854545420000000043FC3
:101472004440200000003C4040207C0000001C2032
:1014820040201C0000003C4030403C00000044284A
:101492001028440000000C5050503C0000004464EE
:1014A200544C440000000836414100000000000096
:1014B2007F000000000000414136080000000808DB
:0E14C2002A1C080000000000000000000000CE
:00000001FF
