S017000054696D65725F636F756E745F6578342E7372656314
S113000045C000004BC0000049C0000047C00000CC
S113001045C0000043C0000041C000003FC00000D4
S11300203DC000003BC0000039C0000037C00000E4
S113003035C0000033C0000031C000002FC00000F4
S11300402DC000002BC0000029C0000027C0000004
S113005025C0000023C0000021C000001FC0000014
S11300601DC000001BC0000019C0000017C0000024
S113007015C0000013C0000011C000000FC0000034
S11300800DC000000BC0000009C0000011241FBEF9
S1130090CFEFD0E1DEBFCDBF78D07EC0B1CF80E15D
S11300A087BB089520E623BF8130910519F423B757
S11300B0216023BF8830910519F423B7226023BF40
S11300C08032910519F423B7236023BF803491054E
S11300D019F423B7246023BF8038910519F423B79A
S11300E0256023BF811521E0920719F423B7266008
S11300F023BF8115944019F483B7876083BF61BF20
S1130100089513BE18BA0895EF92FF920F931F93A8
S1130110CF93DF937C0100E010E02DC060E880E421
S113012090E0C0DF2FE788E391E0215080409040C9
S1130130E1F700C0000060E880E890E0B3DF2FE75B
S113014088E391E0215080409040E1F700C0000036
S1130150219602C0C0E0D0E0CA30D105FCF2D1DF64
S11301602FEF87EA91E6215080409040E1F700C0EC
S113017000000F5F1F4F0E151F0564F3DF91CF9131
S11301801F910F91FF90EF90089589DF83E090E035
S10F0190BBDF80E090E00895F894FFCFFE
S9030000FC
